{
  "_format": "hh-sol-artifact-1",
  "contractName": "CryptoLovers",
  "sourceName": "contracts/CryptoLovers.sol",
  "abi": [
    {
      "inputs": [],
      "stateMutability": "nonpayable",
      "type": "constructor"
    },
    {
      "anonymous": false,
      "inputs": [
        {
          "indexed": true,
          "internalType": "address",
          "name": "owner",
          "type": "address"
        },
        {
          "indexed": true,
          "internalType": "address",
          "name": "approved",
          "type": "address"
        },
        {
          "indexed": true,
          "internalType": "uint256",
          "name": "tokenId",
          "type": "uint256"
        }
      ],
      "name": "Approval",
      "type": "event"
    },
    {
      "anonymous": false,
      "inputs": [
        {
          "indexed": true,
          "internalType": "address",
          "name": "owner",
          "type": "address"
        },
        {
          "indexed": true,
          "internalType": "address",
          "name": "operator",
          "type": "address"
        },
        {
          "indexed": false,
          "internalType": "bool",
          "name": "approved",
          "type": "bool"
        }
      ],
      "name": "ApprovalForAll",
      "type": "event"
    },
    {
      "anonymous": false,
      "inputs": [
        {
          "indexed": true,
          "internalType": "address",
          "name": "from",
          "type": "address"
        },
        {
          "indexed": true,
          "internalType": "address",
          "name": "to",
          "type": "address"
        },
        {
          "indexed": true,
          "internalType": "uint256",
          "name": "tokenId",
          "type": "uint256"
        }
      ],
      "name": "Transfer",
      "type": "event"
    },
    {
      "inputs": [],
      "name": "abc",
      "outputs": [
        {
          "internalType": "uint256",
          "name": "",
          "type": "uint256"
        }
      ],
      "stateMutability": "view",
      "type": "function"
    },
    {
      "inputs": [
        {
          "internalType": "address",
          "name": "to",
          "type": "address"
        },
        {
          "internalType": "uint256",
          "name": "tokenId",
          "type": "uint256"
        }
      ],
      "name": "approve",
      "outputs": [],
      "stateMutability": "nonpayable",
      "type": "function"
    },
    {
      "inputs": [
        {
          "internalType": "address",
          "name": "owner",
          "type": "address"
        }
      ],
      "name": "balanceOf",
      "outputs": [
        {
          "internalType": "uint256",
          "name": "",
          "type": "uint256"
        }
      ],
      "stateMutability": "view",
      "type": "function"
    },
    {
      "inputs": [
        {
          "internalType": "uint256",
          "name": "",
          "type": "uint256"
        }
      ],
      "name": "coders",
      "outputs": [
        {
          "internalType": "string",
          "name": "",
          "type": "string"
        }
      ],
      "stateMutability": "view",
      "type": "function"
    },
    {
      "inputs": [
        {
          "internalType": "uint256",
          "name": "tokenId",
          "type": "uint256"
        }
      ],
      "name": "getApproved",
      "outputs": [
        {
          "internalType": "address",
          "name": "",
          "type": "address"
        }
      ],
      "stateMutability": "view",
      "type": "function"
    },
    {
      "inputs": [
        {
          "internalType": "address",
          "name": "owner",
          "type": "address"
        },
        {
          "internalType": "address",
          "name": "operator",
          "type": "address"
        }
      ],
      "name": "isApprovedForAll",
      "outputs": [
        {
          "internalType": "bool",
          "name": "",
          "type": "bool"
        }
      ],
      "stateMutability": "view",
      "type": "function"
    },
    {
      "inputs": [
        {
          "internalType": "string",
          "name": "coder",
          "type": "string"
        }
      ],
      "name": "mint",
      "outputs": [],
      "stateMutability": "nonpayable",
      "type": "function"
    },
    {
      "inputs": [],
      "name": "name",
      "outputs": [
        {
          "internalType": "string",
          "name": "",
          "type": "string"
        }
      ],
      "stateMutability": "view",
      "type": "function"
    },
    {
      "inputs": [],
      "name": "owner",
      "outputs": [
        {
          "internalType": "address payable",
          "name": "",
          "type": "address"
        }
      ],
      "stateMutability": "view",
      "type": "function"
    },
    {
      "inputs": [
        {
          "internalType": "uint256",
          "name": "tokenId",
          "type": "uint256"
        }
      ],
      "name": "ownerOf",
      "outputs": [
        {
          "internalType": "address",
          "name": "",
          "type": "address"
        }
      ],
      "stateMutability": "view",
      "type": "function"
    },
    {
      "inputs": [
        {
          "internalType": "address",
          "name": "from",
          "type": "address"
        },
        {
          "internalType": "address",
          "name": "to",
          "type": "address"
        },
        {
          "internalType": "uint256",
          "name": "tokenId",
          "type": "uint256"
        }
      ],
      "name": "safeTransferFrom",
      "outputs": [],
      "stateMutability": "nonpayable",
      "type": "function"
    },
    {
      "inputs": [
        {
          "internalType": "address",
          "name": "from",
          "type": "address"
        },
        {
          "internalType": "address",
          "name": "to",
          "type": "address"
        },
        {
          "internalType": "uint256",
          "name": "tokenId",
          "type": "uint256"
        },
        {
          "internalType": "bytes",
          "name": "data",
          "type": "bytes"
        }
      ],
      "name": "safeTransferFrom",
      "outputs": [],
      "stateMutability": "nonpayable",
      "type": "function"
    },
    {
      "inputs": [
        {
          "internalType": "address",
          "name": "operator",
          "type": "address"
        },
        {
          "internalType": "bool",
          "name": "approved",
          "type": "bool"
        }
      ],
      "name": "setApprovalForAll",
      "outputs": [],
      "stateMutability": "nonpayable",
      "type": "function"
    },
    {
      "inputs": [
        {
          "internalType": "bytes4",
          "name": "interfaceId",
          "type": "bytes4"
        }
      ],
      "name": "supportsInterface",
      "outputs": [
        {
          "internalType": "bool",
          "name": "",
          "type": "bool"
        }
      ],
      "stateMutability": "view",
      "type": "function"
    },
    {
      "inputs": [],
      "name": "symbol",
      "outputs": [
        {
          "internalType": "string",
          "name": "",
          "type": "string"
        }
      ],
      "stateMutability": "view",
      "type": "function"
    },
    {
      "inputs": [
        {
          "internalType": "uint256",
          "name": "index",
          "type": "uint256"
        }
      ],
      "name": "tokenByIndex",
      "outputs": [
        {
          "internalType": "uint256",
          "name": "",
          "type": "uint256"
        }
      ],
      "stateMutability": "view",
      "type": "function"
    },
    {
      "inputs": [
        {
          "internalType": "address",
          "name": "owner",
          "type": "address"
        },
        {
          "internalType": "uint256",
          "name": "index",
          "type": "uint256"
        }
      ],
      "name": "tokenOfOwnerByIndex",
      "outputs": [
        {
          "internalType": "uint256",
          "name": "",
          "type": "uint256"
        }
      ],
      "stateMutability": "view",
      "type": "function"
    },
    {
      "inputs": [
        {
          "internalType": "uint256",
          "name": "tokenId",
          "type": "uint256"
        }
      ],
      "name": "tokenURI",
      "outputs": [
        {
          "internalType": "string",
          "name": "",
          "type": "string"
        }
      ],
      "stateMutability": "view",
      "type": "function"
    },
    {
      "inputs": [],
      "name": "totalSupply",
      "outputs": [
        {
          "internalType": "uint256",
          "name": "",
          "type": "uint256"
        }
      ],
      "stateMutability": "view",
      "type": "function"
    },
    {
      "inputs": [
        {
          "internalType": "address",
          "name": "from",
          "type": "address"
        },
        {
          "internalType": "address",
          "name": "to",
          "type": "address"
        },
        {
          "internalType": "uint256",
          "name": "tokenId",
          "type": "uint256"
        }
      ],
      "name": "transferFrom",
      "outputs": [],
      "stateMutability": "nonpayable",
      "type": "function"
    }
  ],
  "bytecode": "0x60806040526005600c553480156200001657600080fd5b506040518060400160405280600c81526020017f43727970746f4c6f7665727300000000000000000000000000000000000000008152506040518060400160405280600381526020017f434c53000000000000000000000000000000000000000000000000000000000081525081600090816200009491906200036a565b508060019081620000a691906200036a565b50505033600a60006101000a81548173ffffffffffffffffffffffffffffffffffffffff021916908373ffffffffffffffffffffffffffffffffffffffff16021790555062000451565b600081519050919050565b7f4e487b7100000000000000000000000000000000000000000000000000000000600052604160045260246000fd5b7f4e487b7100000000000000000000000000000000000000000000000000000000600052602260045260246000fd5b600060028204905060018216806200017257607f821691505b6020821081036200018857620001876200012a565b5b50919050565b60008190508160005260206000209050919050565b60006020601f8301049050919050565b600082821b905092915050565b600060088302620001f27fffffffffffffffffffffffffffffffffffffffffffffffffffffffffffffffff82620001b3565b620001fe8683620001b3565b95508019841693508086168417925050509392505050565b6000819050919050565b6000819050919050565b60006200024b620002456200023f8462000216565b62000220565b62000216565b9050919050565b6000819050919050565b62000267836200022a565b6200027f620002768262000252565b848454620001c0565b825550505050565b600090565b6200029662000287565b620002a38184846200025c565b505050565b5b81811015620002cb57620002bf6000826200028c565b600181019050620002a9565b5050565b601f8211156200031a57620002e4816200018e565b620002ef84620001a3565b81016020851015620002ff578190505b620003176200030e85620001a3565b830182620002a8565b50505b505050565b600082821c905092915050565b60006200033f600019846008026200031f565b1980831691505092915050565b60006200035a83836200032c565b9150826002028217905092915050565b6200037582620000f0565b67ffffffffffffffff811115620003915762000390620000fb565b5b6200039d825462000159565b620003aa828285620002cf565b600060209050601f831160018114620003e25760008415620003cd578287015190505b620003d985826200034c565b86555062000449565b601f198416620003f2866200018e565b60005b828110156200041c57848901518255600182019150602085019450602081019050620003f5565b868310156200043c578489015162000438601f8916826200032c565b8355505b6001600288020188555050505b505050505050565b6132b780620004616000396000f3fe608060405234801561001057600080fd5b506004361061012c5760003560e01c80636352211e116100ad578063a22cb46511610071578063a22cb4651461036b578063b88d4fde14610387578063c87b56dd146103a3578063d85d3d27146103d3578063e985e9c5146103ef5761012c565b80636352211e146102b157806370a08231146102e15780638da5cb5b14610311578063922779331461032f57806395d89b411461034d5761012c565b806323b872dd116100f457806323b872dd146101e95780632f745c591461020557806342842e0e146102355780634cfa16f9146102515780634f6ccce7146102815761012c565b806301ffc9a71461013157806306fdde0314610161578063081812fc1461017f578063095ea7b3146101af57806318160ddd146101cb575b600080fd5b61014b60048036038101906101469190611ec9565b61041f565b6040516101589190611f11565b60405180910390f35b610169610431565b6040516101769190611fbc565b60405180910390f35b61019960048036038101906101949190612014565b6104c3565b6040516101a69190612082565b60405180910390f35b6101c960048036038101906101c491906120c9565b610509565b005b6101d3610620565b6040516101e09190612118565b60405180910390f35b61020360048036038101906101fe9190612133565b61062d565b005b61021f600480360381019061021a91906120c9565b61068d565b60405161022c9190612118565b60405180910390f35b61024f600480360381019061024a9190612133565b610732565b005b61026b60048036038101906102669190612014565b610752565b6040516102789190611fbc565b60405180910390f35b61029b60048036038101906102969190612014565b6107fe565b6040516102a89190612118565b60405180910390f35b6102cb60048036038101906102c69190612014565b61086f565b6040516102d89190612082565b60405180910390f35b6102fb60048036038101906102f69190612186565b610920565b6040516103089190612118565b60405180910390f35b6103196109d7565b60405161032691906121d4565b60405180910390f35b6103376109fd565b6040516103449190612118565b60405180910390f35b610355610a03565b6040516103629190611fbc565b60405180910390f35b6103856004803603810190610380919061221b565b610a95565b005b6103a1600480360381019061039c9190612390565b610aab565b005b6103bd60048036038101906103b89190612014565b610b0d565b6040516103ca9190611fbc565b60405180910390f35b6103ed60048036038101906103e891906124b4565b610b75565b005b610409600480360381019061040491906124fd565b610c71565b6040516104169190611f11565b60405180910390f35b600061042a82610d05565b9050919050565b6060600080546104409061256c565b80601f016020809104026020016040519081016040528092919081815260200182805461046c9061256c565b80156104b95780601f1061048e576101008083540402835291602001916104b9565b820191906000526020600020905b81548152906001019060200180831161049c57829003601f168201915b5050505050905090565b60006104ce82610d7f565b6004600083815260200190815260200160002060009054906101000a900473ffffffffffffffffffffffffffffffffffffffff169050919050565b60006105148261086f565b90508073ffffffffffffffffffffffffffffffffffffffff168373ffffffffffffffffffffffffffffffffffffffff1603610584576040517f08c379a000000000000000000000000000000000000000000000000000000000815260040161057b9061260f565b60405180910390fd5b8073ffffffffffffffffffffffffffffffffffffffff166105a3610dca565b73ffffffffffffffffffffffffffffffffffffffff1614806105d257506105d1816105cc610dca565b610c71565b5b610611576040517f08c379a0000000000000000000000000000000000000000000000000000000008152600401610608906126a1565b60405180910390fd5b61061b8383610dd2565b505050565b6000600880549050905090565b61063e610638610dca565b82610e8b565b61067d576040517f08c379a000000000000000000000000000000000000000000000000000000000815260040161067490612733565b60405180910390fd5b610688838383610f20565b505050565b600061069883610920565b82106106d9576040517f08c379a00000000000000000000000000000000000000000000000000000000081526004016106d0906127c5565b60405180910390fd5b600660008473ffffffffffffffffffffffffffffffffffffffff1673ffffffffffffffffffffffffffffffffffffffff168152602001908152602001600020600083815260200190815260200160002054905092915050565b61074d83838360405180602001604052806000815250610aab565b505050565b600b818154811061076257600080fd5b90600052602060002001600091509050805461077d9061256c565b80601f01602080910402602001604051908101604052809291908181526020018280546107a99061256c565b80156107f65780601f106107cb576101008083540402835291602001916107f6565b820191906000526020600020905b8154815290600101906020018083116107d957829003601f168201915b505050505081565b6000610808610620565b8210610849576040517f08c379a000000000000000000000000000000000000000000000000000000000815260040161084090612857565b60405180910390fd5b6008828154811061085d5761085c612877565b5b90600052602060002001549050919050565b6000806002600084815260200190815260200160002060009054906101000a900473ffffffffffffffffffffffffffffffffffffffff169050600073ffffffffffffffffffffffffffffffffffffffff168173ffffffffffffffffffffffffffffffffffffffff1603610917576040517f08c379a000000000000000000000000000000000000000000000000000000000815260040161090e906128f2565b60405180910390fd5b80915050919050565b60008073ffffffffffffffffffffffffffffffffffffffff168273ffffffffffffffffffffffffffffffffffffffff1603610990576040517f08c379a000000000000000000000000000000000000000000000000000000000815260040161098790612984565b60405180910390fd5b600360008373ffffffffffffffffffffffffffffffffffffffff1673ffffffffffffffffffffffffffffffffffffffff168152602001908152602001600020549050919050565b600a60009054906101000a900473ffffffffffffffffffffffffffffffffffffffff1681565b600c5481565b606060018054610a129061256c565b80601f0160208091040260200160405190810160405280929190818152602001828054610a3e9061256c565b8015610a8b5780601f10610a6057610100808354040283529160200191610a8b565b820191906000526020600020905b815481529060010190602001808311610a6e57829003601f168201915b5050505050905090565b610aa7610aa0610dca565b83836111b1565b5050565b610abc610ab6610dca565b83610e8b565b610afb576040517f08c379a0000000000000000000000000000000000000000000000000000000008152600401610af290612733565b60405180910390fd5b610b078484848461131d565b50505050565b6060610b1882610d7f565b6000610b22611379565b90506000815111610b425760405180602001604052806000815250610b6d565b80610b4c84611390565b604051602001610b5d9291906129e0565b6040516020818303038152906040525b915050919050565b600d81604051610b859190612a04565b908152602001604051809103902060009054906101000a900460ff1615610be1576040517f08c379a0000000000000000000000000000000000000000000000000000000008152600401610bd890612a67565b60405180910390fd5b600b81908060018154018082558091505060019003906000526020600020016000909190919091509081610c159190612c33565b5060006001600b80549050610c2a9190612d34565b9050610c3633826114f0565b6001600d83604051610c489190612a04565b908152602001604051809103902060006101000a81548160ff0219169083151502179055505050565b6000600560008473ffffffffffffffffffffffffffffffffffffffff1673ffffffffffffffffffffffffffffffffffffffff16815260200190815260200160002060008373ffffffffffffffffffffffffffffffffffffffff1673ffffffffffffffffffffffffffffffffffffffff16815260200190815260200160002060009054906101000a900460ff16905092915050565b60007f780e9d63000000000000000000000000000000000000000000000000000000007bffffffffffffffffffffffffffffffffffffffffffffffffffffffff1916827bffffffffffffffffffffffffffffffffffffffffffffffffffffffff19161480610d785750610d77826116c9565b5b9050919050565b610d88816117ab565b610dc7576040517f08c379a0000000000000000000000000000000000000000000000000000000008152600401610dbe906128f2565b60405180910390fd5b50565b600033905090565b816004600083815260200190815260200160002060006101000a81548173ffffffffffffffffffffffffffffffffffffffff021916908373ffffffffffffffffffffffffffffffffffffffff160217905550808273ffffffffffffffffffffffffffffffffffffffff16610e458361086f565b73ffffffffffffffffffffffffffffffffffffffff167f8c5be1e5ebec7d5bd14f71427d1e84f3dd0314c0f7b2291e5b200ac8c7c3b92560405160405180910390a45050565b600080610e978361086f565b90508073ffffffffffffffffffffffffffffffffffffffff168473ffffffffffffffffffffffffffffffffffffffff161480610ed95750610ed88185610c71565b5b80610f1757508373ffffffffffffffffffffffffffffffffffffffff16610eff846104c3565b73ffffffffffffffffffffffffffffffffffffffff16145b91505092915050565b8273ffffffffffffffffffffffffffffffffffffffff16610f408261086f565b73ffffffffffffffffffffffffffffffffffffffff1614610f96576040517f08c379a0000000000000000000000000000000000000000000000000000000008152600401610f8d90612dda565b60405180910390fd5b600073ffffffffffffffffffffffffffffffffffffffff168273ffffffffffffffffffffffffffffffffffffffff1603611005576040517f08c379a0000000000000000000000000000000000000000000000000000000008152600401610ffc90612e6c565b60405180910390fd5b611010838383611817565b6004600082815260200190815260200160002060006101000a81549073ffffffffffffffffffffffffffffffffffffffff02191690556001600360008573ffffffffffffffffffffffffffffffffffffffff1673ffffffffffffffffffffffffffffffffffffffff16815260200190815260200160002060008282546110969190612d34565b925050819055506001600360008473ffffffffffffffffffffffffffffffffffffffff1673ffffffffffffffffffffffffffffffffffffffff16815260200190815260200160002060008282546110ed9190612e8c565b92505081905550816002600083815260200190815260200160002060006101000a81548173ffffffffffffffffffffffffffffffffffffffff021916908373ffffffffffffffffffffffffffffffffffffffff160217905550808273ffffffffffffffffffffffffffffffffffffffff168473ffffffffffffffffffffffffffffffffffffffff167fddf252ad1be2c89b69c2b068fc378daa952ba7f163c4a11628f55a4df523b3ef60405160405180910390a46111ac838383611827565b505050565b8173ffffffffffffffffffffffffffffffffffffffff168373ffffffffffffffffffffffffffffffffffffffff160361121f576040517f08c379a000000000000000000000000000000000000000000000000000000000815260040161121690612f0c565b60405180910390fd5b80600560008573ffffffffffffffffffffffffffffffffffffffff1673ffffffffffffffffffffffffffffffffffffffff16815260200190815260200160002060008473ffffffffffffffffffffffffffffffffffffffff1673ffffffffffffffffffffffffffffffffffffffff16815260200190815260200160002060006101000a81548160ff0219169083151502179055508173ffffffffffffffffffffffffffffffffffffffff168373ffffffffffffffffffffffffffffffffffffffff167f17307eab39ab6107e8899845ad3d59bd9653f200f220920489ca2b5937696c31836040516113109190611f11565b60405180910390a3505050565b611328848484610f20565b6113348484848461182c565b611373576040517f08c379a000000000000000000000000000000000000000000000000000000000815260040161136a90612f9e565b60405180910390fd5b50505050565b606060405180602001604052806000815250905090565b6060600082036113d7576040518060400160405280600181526020017f300000000000000000000000000000000000000000000000000000000000000081525090506114eb565b600082905060005b600082146114095780806113f290612fbe565b915050600a826114029190613035565b91506113df565b60008167ffffffffffffffff81111561142557611424612265565b5b6040519080825280601f01601f1916602001820160405280156114575781602001600182028036833780820191505090505b5090505b600085146114e4576001826114709190612d34565b9150600a8561147f9190613066565b603061148b9190612e8c565b60f81b8183815181106114a1576114a0612877565b5b60200101907effffffffffffffffffffffffffffffffffffffffffffffffffffffffffffff1916908160001a905350600a856114dd9190613035565b945061145b565b8093505050505b919050565b600073ffffffffffffffffffffffffffffffffffffffff168273ffffffffffffffffffffffffffffffffffffffff160361155f576040517f08c379a0000000000000000000000000000000000000000000000000000000008152600401611556906130e3565b60405180910390fd5b611568816117ab565b156115a8576040517f08c379a000000000000000000000000000000000000000000000000000000000815260040161159f9061314f565b60405180910390fd5b6115b460008383611817565b6001600360008473ffffffffffffffffffffffffffffffffffffffff1673ffffffffffffffffffffffffffffffffffffffff16815260200190815260200160002060008282546116049190612e8c565b92505081905550816002600083815260200190815260200160002060006101000a81548173ffffffffffffffffffffffffffffffffffffffff021916908373ffffffffffffffffffffffffffffffffffffffff160217905550808273ffffffffffffffffffffffffffffffffffffffff16600073ffffffffffffffffffffffffffffffffffffffff167fddf252ad1be2c89b69c2b068fc378daa952ba7f163c4a11628f55a4df523b3ef60405160405180910390a46116c560008383611827565b5050565b60007f80ac58cd000000000000000000000000000000000000000000000000000000007bffffffffffffffffffffffffffffffffffffffffffffffffffffffff1916827bffffffffffffffffffffffffffffffffffffffffffffffffffffffff1916148061179457507f5b5e139f000000000000000000000000000000000000000000000000000000007bffffffffffffffffffffffffffffffffffffffffffffffffffffffff1916827bffffffffffffffffffffffffffffffffffffffffffffffffffffffff1916145b806117a457506117a3826119b3565b5b9050919050565b60008073ffffffffffffffffffffffffffffffffffffffff166002600084815260200190815260200160002060009054906101000a900473ffffffffffffffffffffffffffffffffffffffff1673ffffffffffffffffffffffffffffffffffffffff1614159050919050565b611822838383611a1d565b505050565b505050565b600061184d8473ffffffffffffffffffffffffffffffffffffffff16611b2f565b156119a6578373ffffffffffffffffffffffffffffffffffffffff1663150b7a02611876610dca565b8786866040518563ffffffff1660e01b815260040161189894939291906131c4565b6020604051808303816000875af19250505080156118d457506040513d601f19601f820116820180604052508101906118d19190613225565b60015b611956573d8060008114611904576040519150601f19603f3d011682016040523d82523d6000602084013e611909565b606091505b50600081510361194e576040517f08c379a000000000000000000000000000000000000000000000000000000000815260040161194590612f9e565b60405180910390fd5b805181602001fd5b63150b7a0260e01b7bffffffffffffffffffffffffffffffffffffffffffffffffffffffff1916817bffffffffffffffffffffffffffffffffffffffffffffffffffffffff1916149150506119ab565b600190505b949350505050565b60007f01ffc9a7000000000000000000000000000000000000000000000000000000007bffffffffffffffffffffffffffffffffffffffffffffffffffffffff1916827bffffffffffffffffffffffffffffffffffffffffffffffffffffffff1916149050919050565b611a28838383611b52565b600073ffffffffffffffffffffffffffffffffffffffff168373ffffffffffffffffffffffffffffffffffffffff1603611a6a57611a6581611b57565b611aa9565b8173ffffffffffffffffffffffffffffffffffffffff168373ffffffffffffffffffffffffffffffffffffffff1614611aa857611aa78382611ba0565b5b5b600073ffffffffffffffffffffffffffffffffffffffff168273ffffffffffffffffffffffffffffffffffffffff1603611aeb57611ae681611d0d565b611b2a565b8273ffffffffffffffffffffffffffffffffffffffff168273ffffffffffffffffffffffffffffffffffffffff1614611b2957611b288282611dde565b5b5b505050565b6000808273ffffffffffffffffffffffffffffffffffffffff163b119050919050565b505050565b6008805490506009600083815260200190815260200160002081905550600881908060018154018082558091505060019003906000526020600020016000909190919091505550565b60006001611bad84610920565b611bb79190612d34565b9050600060076000848152602001908152602001600020549050818114611c9c576000600660008673ffffffffffffffffffffffffffffffffffffffff1673ffffffffffffffffffffffffffffffffffffffff168152602001908152602001600020600084815260200190815260200160002054905080600660008773ffffffffffffffffffffffffffffffffffffffff1673ffffffffffffffffffffffffffffffffffffffff168152602001908152602001600020600084815260200190815260200160002081905550816007600083815260200190815260200160002081905550505b6007600084815260200190815260200160002060009055600660008573ffffffffffffffffffffffffffffffffffffffff1673ffffffffffffffffffffffffffffffffffffffff16815260200190815260200160002060008381526020019081526020016000206000905550505050565b60006001600880549050611d219190612d34565b9050600060096000848152602001908152602001600020549050600060088381548110611d5157611d50612877565b5b906000526020600020015490508060088381548110611d7357611d72612877565b5b906000526020600020018190555081600960008381526020019081526020016000208190555060096000858152602001908152602001600020600090556008805480611dc257611dc1613252565b5b6001900381819060005260206000200160009055905550505050565b6000611de983610920565b905081600660008573ffffffffffffffffffffffffffffffffffffffff1673ffffffffffffffffffffffffffffffffffffffff168152602001908152602001600020600083815260200190815260200160002081905550806007600084815260200190815260200160002081905550505050565b6000604051905090565b600080fd5b600080fd5b60007fffffffff0000000000000000000000000000000000000000000000000000000082169050919050565b611ea681611e71565b8114611eb157600080fd5b50565b600081359050611ec381611e9d565b92915050565b600060208284031215611edf57611ede611e67565b5b6000611eed84828501611eb4565b91505092915050565b60008115159050919050565b611f0b81611ef6565b82525050565b6000602082019050611f266000830184611f02565b92915050565b600081519050919050565b600082825260208201905092915050565b60005b83811015611f66578082015181840152602081019050611f4b565b60008484015250505050565b6000601f19601f8301169050919050565b6000611f8e82611f2c565b611f988185611f37565b9350611fa8818560208601611f48565b611fb181611f72565b840191505092915050565b60006020820190508181036000830152611fd68184611f83565b905092915050565b6000819050919050565b611ff181611fde565b8114611ffc57600080fd5b50565b60008135905061200e81611fe8565b92915050565b60006020828403121561202a57612029611e67565b5b600061203884828501611fff565b91505092915050565b600073ffffffffffffffffffffffffffffffffffffffff82169050919050565b600061206c82612041565b9050919050565b61207c81612061565b82525050565b60006020820190506120976000830184612073565b92915050565b6120a681612061565b81146120b157600080fd5b50565b6000813590506120c38161209d565b92915050565b600080604083850312156120e0576120df611e67565b5b60006120ee858286016120b4565b92505060206120ff85828601611fff565b9150509250929050565b61211281611fde565b82525050565b600060208201905061212d6000830184612109565b92915050565b60008060006060848603121561214c5761214b611e67565b5b600061215a868287016120b4565b935050602061216b868287016120b4565b925050604061217c86828701611fff565b9150509250925092565b60006020828403121561219c5761219b611e67565b5b60006121aa848285016120b4565b91505092915050565b60006121be82612041565b9050919050565b6121ce816121b3565b82525050565b60006020820190506121e960008301846121c5565b92915050565b6121f881611ef6565b811461220357600080fd5b50565b600081359050612215816121ef565b92915050565b6000806040838503121561223257612231611e67565b5b6000612240858286016120b4565b925050602061225185828601612206565b9150509250929050565b600080fd5b600080fd5b7f4e487b7100000000000000000000000000000000000000000000000000000000600052604160045260246000fd5b61229d82611f72565b810181811067ffffffffffffffff821117156122bc576122bb612265565b5b80604052505050565b60006122cf611e5d565b90506122db8282612294565b919050565b600067ffffffffffffffff8211156122fb576122fa612265565b5b61230482611f72565b9050602081019050919050565b82818337600083830152505050565b600061233361232e846122e0565b6122c5565b90508281526020810184848401111561234f5761234e612260565b5b61235a848285612311565b509392505050565b600082601f8301126123775761237661225b565b5b8135612387848260208601612320565b91505092915050565b600080600080608085870312156123aa576123a9611e67565b5b60006123b8878288016120b4565b94505060206123c9878288016120b4565b93505060406123da87828801611fff565b925050606085013567ffffffffffffffff8111156123fb576123fa611e6c565b5b61240787828801612362565b91505092959194509250565b600067ffffffffffffffff82111561242e5761242d612265565b5b61243782611f72565b9050602081019050919050565b600061245761245284612413565b6122c5565b90508281526020810184848401111561247357612472612260565b5b61247e848285612311565b509392505050565b600082601f83011261249b5761249a61225b565b5b81356124ab848260208601612444565b91505092915050565b6000602082840312156124ca576124c9611e67565b5b600082013567ffffffffffffffff8111156124e8576124e7611e6c565b5b6124f484828501612486565b91505092915050565b6000806040838503121561251457612513611e67565b5b6000612522858286016120b4565b9250506020612533858286016120b4565b9150509250929050565b7f4e487b7100000000000000000000000000000000000000000000000000000000600052602260045260246000fd5b6000600282049050600182168061258457607f821691505b6020821081036125975761259661253d565b5b50919050565b7f4552433732313a20617070726f76616c20746f2063757272656e74206f776e6560008201527f7200000000000000000000000000000000000000000000000000000000000000602082015250565b60006125f9602183611f37565b91506126048261259d565b604082019050919050565b60006020820190508181036000830152612628816125ec565b9050919050565b7f4552433732313a20617070726f76652063616c6c6572206973206e6f7420746f60008201527f6b656e206f776e6572206f7220617070726f76656420666f7220616c6c000000602082015250565b600061268b603d83611f37565b91506126968261262f565b604082019050919050565b600060208201905081810360008301526126ba8161267e565b9050919050565b7f4552433732313a2063616c6c6572206973206e6f7420746f6b656e206f776e6560008201527f72206f7220617070726f76656400000000000000000000000000000000000000602082015250565b600061271d602d83611f37565b9150612728826126c1565b604082019050919050565b6000602082019050818103600083015261274c81612710565b9050919050565b7f455243373231456e756d657261626c653a206f776e657220696e646578206f7560008201527f74206f6620626f756e6473000000000000000000000000000000000000000000602082015250565b60006127af602b83611f37565b91506127ba82612753565b604082019050919050565b600060208201905081810360008301526127de816127a2565b9050919050565b7f455243373231456e756d657261626c653a20676c6f62616c20696e646578206f60008201527f7574206f6620626f756e64730000000000000000000000000000000000000000602082015250565b6000612841602c83611f37565b915061284c826127e5565b604082019050919050565b6000602082019050818103600083015261287081612834565b9050919050565b7f4e487b7100000000000000000000000000000000000000000000000000000000600052603260045260246000fd5b7f4552433732313a20696e76616c696420746f6b656e2049440000000000000000600082015250565b60006128dc601883611f37565b91506128e7826128a6565b602082019050919050565b6000602082019050818103600083015261290b816128cf565b9050919050565b7f4552433732313a2061646472657373207a65726f206973206e6f74206120766160008201527f6c6964206f776e65720000000000000000000000000000000000000000000000602082015250565b600061296e602983611f37565b915061297982612912565b604082019050919050565b6000602082019050818103600083015261299d81612961565b9050919050565b600081905092915050565b60006129ba82611f2c565b6129c481856129a4565b93506129d4818560208601611f48565b80840191505092915050565b60006129ec82856129af565b91506129f882846129af565b91508190509392505050565b6000612a1082846129af565b915081905092915050565b7f4e616d6520616c72656164792065786973747321212100000000000000000000600082015250565b6000612a51601683611f37565b9150612a5c82612a1b565b602082019050919050565b60006020820190508181036000830152612a8081612a44565b9050919050565b60008190508160005260206000209050919050565b60006020601f8301049050919050565b600082821b905092915050565b600060088302612ae97fffffffffffffffffffffffffffffffffffffffffffffffffffffffffffffffff82612aac565b612af38683612aac565b95508019841693508086168417925050509392505050565b6000819050919050565b6000612b30612b2b612b2684611fde565b612b0b565b611fde565b9050919050565b6000819050919050565b612b4a83612b15565b612b5e612b5682612b37565b848454612ab9565b825550505050565b600090565b612b73612b66565b612b7e818484612b41565b505050565b5b81811015612ba257612b97600082612b6b565b600181019050612b84565b5050565b601f821115612be757612bb881612a87565b612bc184612a9c565b81016020851015612bd0578190505b612be4612bdc85612a9c565b830182612b83565b50505b505050565b600082821c905092915050565b6000612c0a60001984600802612bec565b1980831691505092915050565b6000612c238383612bf9565b9150826002028217905092915050565b612c3c82611f2c565b67ffffffffffffffff811115612c5557612c54612265565b5b612c5f825461256c565b612c6a828285612ba6565b600060209050601f831160018114612c9d5760008415612c8b578287015190505b612c958582612c17565b865550612cfd565b601f198416612cab86612a87565b60005b82811015612cd357848901518255600182019150602085019450602081019050612cae565b86831015612cf05784890151612cec601f891682612bf9565b8355505b6001600288020188555050505b505050505050565b7f4e487b7100000000000000000000000000000000000000000000000000000000600052601160045260246000fd5b6000612d3f82611fde565b9150612d4a83611fde565b9250828203905081811115612d6257612d61612d05565b5b92915050565b7f4552433732313a207472616e736665722066726f6d20696e636f72726563742060008201527f6f776e6572000000000000000000000000000000000000000000000000000000602082015250565b6000612dc4602583611f37565b9150612dcf82612d68565b604082019050919050565b60006020820190508181036000830152612df381612db7565b9050919050565b7f4552433732313a207472616e7366657220746f20746865207a65726f2061646460008201527f7265737300000000000000000000000000000000000000000000000000000000602082015250565b6000612e56602483611f37565b9150612e6182612dfa565b604082019050919050565b60006020820190508181036000830152612e8581612e49565b9050919050565b6000612e9782611fde565b9150612ea283611fde565b9250828201905080821115612eba57612eb9612d05565b5b92915050565b7f4552433732313a20617070726f766520746f2063616c6c657200000000000000600082015250565b6000612ef6601983611f37565b9150612f0182612ec0565b602082019050919050565b60006020820190508181036000830152612f2581612ee9565b9050919050565b7f4552433732313a207472616e7366657220746f206e6f6e20455243373231526560008201527f63656976657220696d706c656d656e7465720000000000000000000000000000602082015250565b6000612f88603283611f37565b9150612f9382612f2c565b604082019050919050565b60006020820190508181036000830152612fb781612f7b565b9050919050565b6000612fc982611fde565b91507fffffffffffffffffffffffffffffffffffffffffffffffffffffffffffffffff8203612ffb57612ffa612d05565b5b600182019050919050565b7f4e487b7100000000000000000000000000000000000000000000000000000000600052601260045260246000fd5b600061304082611fde565b915061304b83611fde565b92508261305b5761305a613006565b5b828204905092915050565b600061307182611fde565b915061307c83611fde565b92508261308c5761308b613006565b5b828206905092915050565b7f4552433732313a206d696e7420746f20746865207a65726f2061646472657373600082015250565b60006130cd602083611f37565b91506130d882613097565b602082019050919050565b600060208201905081810360008301526130fc816130c0565b9050919050565b7f4552433732313a20746f6b656e20616c7265616479206d696e74656400000000600082015250565b6000613139601c83611f37565b915061314482613103565b602082019050919050565b600060208201905081810360008301526131688161312c565b9050919050565b600081519050919050565b600082825260208201905092915050565b60006131968261316f565b6131a0818561317a565b93506131b0818560208601611f48565b6131b981611f72565b840191505092915050565b60006080820190506131d96000830187612073565b6131e66020830186612073565b6131f36040830185612109565b8181036060830152613205818461318b565b905095945050505050565b60008151905061321f81611e9d565b92915050565b60006020828403121561323b5761323a611e67565b5b600061324984828501613210565b91505092915050565b7f4e487b7100000000000000000000000000000000000000000000000000000000600052603160045260246000fdfea26469706673582212204bf4a72e38e7838331c9aef66d2b7f786996d283dda7a991554536573dda17c764736f6c63430008110033",
  "linkReferences": {},
  "deployedLinkReferences": {}
}